{
  "contractName": "todoList",
  "abi": [
    {
      "inputs": [],
      "payable": false,
      "stateMutability": "nonpayable",
      "type": "constructor"
    },
    {
      "anonymous": false,
      "inputs": [
        {
          "indexed": false,
          "internalType": "uint256",
          "name": "id",
          "type": "uint256"
        },
        {
          "indexed": false,
          "internalType": "bool",
          "name": "completed",
          "type": "bool"
        }
      ],
      "name": "TaskCompleted",
      "type": "event"
    },
    {
      "anonymous": false,
      "inputs": [
        {
          "indexed": false,
          "internalType": "uint256",
          "name": "id",
          "type": "uint256"
        }
      ],
      "name": "TaskDeleted",
      "type": "event"
    },
    {
      "anonymous": false,
      "inputs": [
        {
          "indexed": false,
          "internalType": "uint256",
          "name": "id",
          "type": "uint256"
        },
        {
          "indexed": false,
          "internalType": "string",
          "name": "content",
          "type": "string"
        }
      ],
      "name": "TaskUpdated",
      "type": "event"
    },
    {
      "anonymous": false,
      "inputs": [
        {
          "indexed": false,
          "internalType": "uint256",
          "name": "id",
          "type": "uint256"
        },
        {
          "indexed": false,
          "internalType": "string",
          "name": "content",
          "type": "string"
        },
        {
          "indexed": false,
          "internalType": "bool",
          "name": "completed",
          "type": "bool"
        }
      ],
      "name": "Taskcreated",
      "type": "event"
    },
    {
      "constant": true,
      "inputs": [],
      "name": "taskCount",
      "outputs": [
        {
          "internalType": "uint256",
          "name": "",
          "type": "uint256"
        }
      ],
      "payable": false,
      "stateMutability": "view",
      "type": "function"
    },
    {
      "constant": true,
      "inputs": [
        {
          "internalType": "uint256",
          "name": "",
          "type": "uint256"
        }
      ],
      "name": "tasks",
      "outputs": [
        {
          "internalType": "uint256",
          "name": "id",
          "type": "uint256"
        },
        {
          "internalType": "string",
          "name": "content",
          "type": "string"
        },
        {
          "internalType": "bool",
          "name": "completed",
          "type": "bool"
        }
      ],
      "payable": false,
      "stateMutability": "view",
      "type": "function"
    },
    {
      "constant": false,
      "inputs": [
        {
          "internalType": "string",
          "name": "_content",
          "type": "string"
        }
      ],
      "name": "createTask",
      "outputs": [],
      "payable": false,
      "stateMutability": "nonpayable",
      "type": "function"
    },
    {
      "constant": false,
      "inputs": [
        {
          "internalType": "uint256",
          "name": "_id",
          "type": "uint256"
        }
      ],
      "name": "toggleCompleted",
      "outputs": [],
      "payable": false,
      "stateMutability": "nonpayable",
      "type": "function"
    },
    {
      "constant": false,
      "inputs": [
        {
          "internalType": "uint256",
          "name": "_id",
          "type": "uint256"
        },
        {
          "internalType": "string",
          "name": "_content",
          "type": "string"
        }
      ],
      "name": "updateTask",
      "outputs": [],
      "payable": false,
      "stateMutability": "nonpayable",
      "type": "function"
    },
    {
      "constant": false,
      "inputs": [
        {
          "internalType": "uint256",
          "name": "_id",
          "type": "uint256"
        }
      ],
      "name": "deleteTask",
      "outputs": [],
      "payable": false,
      "stateMutability": "nonpayable",
      "type": "function"
    }
  ],
  "bytecode": "0x60806040526000805534801561001457600080fd5b50604080518082019091526006815265746573742d3160d01b6020820152610044906001600160e01b0361004916565b610208565b60008054600190810180835560408051606081018252828152602080820187815282840187905293865284815291909420845181559151805192936100969390850192919091019061016d565b5060408201518160020160006101000a81548160ff0219169083151502179055509050507fbea98e529efa2f8838fe6014e09e62605af4a4fde15e8f4625a661c881a09097600054826000604051808481526020018060200183151515158152602001828103825284818151815260200191508051906020019080838360005b8381101561012e578181015183820152602001610116565b50505050905090810190601f16801561015b5780820380516001836020036101000a031916815260200191505b5094505050505060405180910390a150565b828054600181600116156101000203166002900490600052602060002090601f016020900481019282601f106101ae57805160ff19168380011785556101db565b828001600101855582156101db579182015b828111156101db5782518255916020019190600101906101c0565b506101e79291506101eb565b5090565b61020591905b808211156101e757600081556001016101f1565b90565b610a59806102176000396000f3fe608060405234801561001057600080fd5b50600436106100625760003560e01c8063111002aa14610067578063455f50241461010f578063560f31921461012c57806386533f6c146101495780638d977672146101f6578063b6cb58a51461029d575b600080fd5b61010d6004803603602081101561007d57600080fd5b81019060208101813564010000000081111561009857600080fd5b8201836020820111156100aa57600080fd5b803590602001918460018302840111640100000000831117156100cc57600080fd5b91908080601f0160208091040260200160405190810160405280939291908181526020018383808284376000920191909152509295506102b7945050505050565b005b61010d6004803603602081101561012557600080fd5b50356103db565b61010d6004803603602081101561014257600080fd5b5035610550565b61010d6004803603604081101561015f57600080fd5b8135919081019060408101602082013564010000000081111561018157600080fd5b82018360208201111561019357600080fd5b803590602001918460018302840111640100000000831117156101b557600080fd5b91908080601f016020809104026020016040519081016040528093929190818152602001838380828437600092019190915250929550610632945050505050565b6102136004803603602081101561020c57600080fd5b50356107f5565b604051808481526020018060200183151515158152602001828103825284818151815260200191508051906020019080838360005b83811015610260578181015183820152602001610248565b50505050905090810190601f16801561028d5780820380516001836020036101000a031916815260200191505b5094505050505060405180910390f35b6102a56108a4565b60408051918252519081900360200190f35b6000805460019081018083556040805160608101825282815260208082018781528284018790529386528481529190942084518155915180519293610304939085019291909101906108aa565b5060408201518160020160006101000a81548160ff0219169083151502179055509050507fbea98e529efa2f8838fe6014e09e62605af4a4fde15e8f4625a661c881a09097600054826000604051808481526020018060200183151515158152602001828103825284818151815260200191508051906020019080838360005b8381101561039c578181015183820152602001610384565b50505050905090810190601f1680156103c95780820380516001836020036101000a031916815260200191505b5094505050505060405180910390a150565b6103e3610928565b60008281526001602081815260409283902083516060810185528154815281840180548651600296821615610100026000190190911695909504601f8101859004850286018501909652858552909491938584019390929083018282801561048c5780601f106104615761010080835404028352916020019161048c565b820191906000526020600020905b81548152906001019060200180831161046f57829003601f168201915b50505091835250506002919091015460ff161515602091820152604080830180511590526000858152600180845291902083518155838301518051949550859491936104dd938501929101906108aa565b506040918201516002918201805460ff19169115159190911790556000848152600160209081529083902090910154825185815260ff90911615159181019190915281517fe21fa966ca5cd02748c0752352d18c48165e61cb55b4c29cccf924b5a95fcff1929181900390910190a15050565b6000818152600160208190526040822082815591906105719083018261094b565b50600201805460ff19169055805b6000548110156105f15760018181016000908152602082905260408082208483529120815481558183018054929391926105cd92848101929160029181161561010002600019011604610992565b506002918201549101805460ff191660ff909216151591909117905560010161057f565b50600080546000190190556040805182815290517fd078b251d950cc55c44340be1db732337ef4939a76e1367ee271ad2cb19c46af9181900360200190a150565b61063a610928565b60008381526001602081815260409283902083516060810185528154815281840180548651600296821615610100026000190190911695909504601f810185900485028601850190965285855290949193858401939092908301828280156106e35780601f106106b8576101008083540402835291602001916106e3565b820191906000526020600020905b8154815290600101906020018083116106c657829003601f168201915b50505091835250506002919091015460ff16151560209182015281810184815260008681526001808452604090912084518155915180519495508594929361073193928501929101906108aa565b50604091820151600291909101805460ff1916911515919091179055602082810151825186815280830184815282519482019490945281517fde038a66d64727fc277f5f5f3d50b98d205e4ae705bfb8ac824cea4877b9be499488949091606084019185019080838360005b838110156107b557818101518382015260200161079d565b50505050905090810190601f1680156107e25780820380516001836020036101000a031916815260200191505b50935050505060405180910390a1505050565b600160208181526000928352604092839020805481840180548651600296821615610100026000190190911695909504601f810185900485028601850190965285855290949193929091908301828280156108915780601f1061086657610100808354040283529160200191610891565b820191906000526020600020905b81548152906001019060200180831161087457829003601f168201915b5050506002909301549192505060ff1683565b60005481565b828054600181600116156101000203166002900490600052602060002090601f016020900481019282601f106108eb57805160ff1916838001178555610918565b82800160010185558215610918579182015b828111156109185782518255916020019190600101906108fd565b50610924929150610a07565b5090565b604051806060016040528060008152602001606081526020016000151581525090565b50805460018160011615610100020316600290046000825580601f10610971575061098f565b601f01602090049060005260206000209081019061098f9190610a07565b50565b828054600181600116156101000203166002900490600052602060002090601f016020900481019282601f106109cb5780548555610918565b8280016001018555821561091857600052602060002091601f016020900482015b828111156109185782548255916001019190600101906109ec565b610a2191905b808211156109245760008155600101610a0d565b9056fea265627a7a72315820ca868886aab5090b0aeff48b9ff5ecab25af32632062f75c826235b2e0bd8d5364736f6c63430005100032",
  "source": "pragma solidity ^0.5.0;\n\ncontract todoList {\n  uint public taskCount = 0;\n\n  struct Task {\n    uint id;\n    string content;\n    bool completed; \n  }\n\n  mapping(uint => Task) public tasks;\n\n  event Taskcreated(\n    uint id,\n    string content,\n    bool completed    \n  );\n\n  event TaskCompleted(\n    uint id,\n    bool completed\n  );\n\n  event TaskUpdated(\n    uint id,\n    string content\n  );\n\n  event TaskDeleted(\n    uint id\n  );\n\n  constructor() public {\n    createTask('test-1');\n  }\n\n  function createTask(string memory _content) public {\n    taskCount = taskCount + 1;\n    tasks[taskCount] = Task(taskCount, _content, false);\n    emit Taskcreated(taskCount, _content, false);\n  }\n\n  function toggleCompleted(uint _id) public {\n    Task memory _task = tasks[_id];\n    _task.completed = !_task.completed;\n    tasks[_id] = _task;\n    emit TaskCompleted(_id, tasks[_id].completed);\n  }\n\n  function updateTask(uint _id, string memory _content) public {\n    Task memory _task = tasks[_id];\n    _task.content = _content;\n    tasks[_id] = _task;\n    emit TaskUpdated(_id, _task.content);\n  }\n\n  function deleteTask(uint _id) public {\n    delete tasks[_id];\n    for (uint i = _id; i < taskCount; i++) {\n      tasks[i] = tasks[i + 1];\n    }\n    taskCount--;\n    emit TaskDeleted(_id);\n  }\n}",
  "sourcePath": "/Users/macbook/Desktop/todo/vue-todo-list-eth/contracts/todoList.sol",
  "compiler": {
    "name": "solc",
    "version": "0.5.16+commit.9c3226ce.Emscripten.clang"
  },
  "schemaVersion": "3.4.1",
  "updatedAt": "2021-05-12T09:29:59.625Z",
  "networkType": "ethereum",
  "devdoc": {
    "methods": {}
  },
  "userdoc": {
    "methods": {}
  }
}